{
  "_format": "hh-sol-artifact-1",
  "contractName": "PokerPotEscrow",
  "sourceName": "contracts/PokerPotEscrow.sol",
  "abi": [
    {
      "inputs": [
        {
          "internalType": "address",
          "name": "usdcAddress",
          "type": "address"
        },
        {
          "internalType": "address",
          "name": "hostAddress",
          "type": "address"
        }
      ],
      "stateMutability": "nonpayable",
      "type": "constructor"
    },
    {
      "anonymous": false,
      "inputs": [
        {
          "indexed": true,
          "internalType": "address",
          "name": "player",
          "type": "address"
        },
        {
          "indexed": false,
          "internalType": "uint256",
          "name": "amount",
          "type": "uint256"
        }
      ],
      "name": "Deposit",
      "type": "event"
    },
    {
      "anonymous": false,
      "inputs": [
        {
          "indexed": true,
          "internalType": "address",
          "name": "player",
          "type": "address"
        },
        {
          "indexed": false,
          "internalType": "uint256",
          "name": "amount",
          "type": "uint256"
        }
      ],
      "name": "Payout",
      "type": "event"
    },
    {
      "inputs": [
        {
          "internalType": "uint256",
          "name": "amount",
          "type": "uint256"
        }
      ],
      "name": "deposit",
      "outputs": [],
      "stateMutability": "nonpayable",
      "type": "function"
    },
    {
      "inputs": [],
      "name": "getGameBalance",
      "outputs": [
        {
          "internalType": "uint256",
          "name": "",
          "type": "uint256"
        }
      ],
      "stateMutability": "view",
      "type": "function"
    },
    {
      "inputs": [
        {
          "internalType": "address",
          "name": "player",
          "type": "address"
        }
      ],
      "name": "getPlayerBalance",
      "outputs": [
        {
          "internalType": "uint256",
          "name": "",
          "type": "uint256"
        }
      ],
      "stateMutability": "view",
      "type": "function"
    },
    {
      "inputs": [],
      "name": "host",
      "outputs": [
        {
          "internalType": "address",
          "name": "",
          "type": "address"
        }
      ],
      "stateMutability": "view",
      "type": "function"
    },
    {
      "inputs": [
        {
          "internalType": "address",
          "name": "player",
          "type": "address"
        },
        {
          "internalType": "uint256",
          "name": "amount",
          "type": "uint256"
        }
      ],
      "name": "payout",
      "outputs": [],
      "stateMutability": "nonpayable",
      "type": "function"
    },
    {
      "inputs": [],
      "name": "usdc",
      "outputs": [
        {
          "internalType": "contract IERC20",
          "name": "",
          "type": "address"
        }
      ],
      "stateMutability": "view",
      "type": "function"
    }
  ],
  "bytecode": "0x60c06040523480156200001157600080fd5b506040516200108c3803806200108c8339818101604052810190620000379190620001f5565b600073ffffffffffffffffffffffffffffffffffffffff168273ffffffffffffffffffffffffffffffffffffffff1603620000a9576040517f08c379a0000000000000000000000000000000000000000000000000000000008152600401620000a0906200029d565b60405180910390fd5b600073ffffffffffffffffffffffffffffffffffffffff168173ffffffffffffffffffffffffffffffffffffffff16036200011b576040517f08c379a000000000000000000000000000000000000000000000000000000000815260040162000112906200030f565b60405180910390fd5b8173ffffffffffffffffffffffffffffffffffffffff1660808173ffffffffffffffffffffffffffffffffffffffff16815250508073ffffffffffffffffffffffffffffffffffffffff1660a08173ffffffffffffffffffffffffffffffffffffffff1681525050505062000331565b600080fd5b600073ffffffffffffffffffffffffffffffffffffffff82169050919050565b6000620001bd8262000190565b9050919050565b620001cf81620001b0565b8114620001db57600080fd5b50565b600081519050620001ef81620001c4565b92915050565b600080604083850312156200020f576200020e6200018b565b5b60006200021f85828601620001de565b92505060206200023285828601620001de565b9150509250929050565b600082825260208201905092915050565b7f506f6b6572506f74457363726f773a2055534443206973207a65726f00000000600082015250565b600062000285601c836200023c565b915062000292826200024d565b602082019050919050565b60006020820190508181036000830152620002b88162000276565b9050919050565b7f506f6b6572506f74457363726f773a20686f7374206973207a65726f00000000600082015250565b6000620002f7601c836200023c565b91506200030482620002bf565b602082019050919050565b600060208201905081810360008301526200032a81620002e8565b9050919050565b60805160a051610d206200036c6000396000818161012b015261073e0152600081816103ad015281816104e1015261054a0152610d206000f3fe608060405234801561001057600080fd5b50600436106100625760003560e01c8063117de2fd146100675780633e413bee14610083578063b6b55f25146100a1578063c574d156146100bd578063e2734c93146100db578063f437bc591461010b575b600080fd5b610081600480360381019061007c91906107f9565b610129565b005b61008b6104df565b6040516100989190610898565b60405180910390f35b6100bb60048036038101906100b691906108b3565b610503565b005b6100c56106ea565b6040516100d291906108ef565b60405180910390f35b6100f560048036038101906100f0919061090a565b6106f4565b60405161010291906108ef565b60405180910390f35b61011361073c565b6040516101209190610946565b60405180910390f35b7f000000000000000000000000000000000000000000000000000000000000000073ffffffffffffffffffffffffffffffffffffffff163373ffffffffffffffffffffffffffffffffffffffff16146101b7576040517f08c379a00000000000000000000000000000000000000000000000000000000081526004016101ae906109be565b60405180910390fd5b600073ffffffffffffffffffffffffffffffffffffffff168273ffffffffffffffffffffffffffffffffffffffff1603610226576040517f08c379a000000000000000000000000000000000000000000000000000000000815260040161021d90610a2a565b60405180910390fd5b60008111610269576040517f08c379a000000000000000000000000000000000000000000000000000000000815260040161026090610a96565b60405180910390fd5b8060015410156102ae576040517f08c379a00000000000000000000000000000000000000000000000000000000081526004016102a590610b02565b60405180910390fd5b60008060008473ffffffffffffffffffffffffffffffffffffffff1673ffffffffffffffffffffffffffffffffffffffff16815260200190815260200160002054905081811061034b5781816103049190610b51565b6000808573ffffffffffffffffffffffffffffffffffffffff1673ffffffffffffffffffffffffffffffffffffffff16815260200190815260200160002081905550610390565b60008060008573ffffffffffffffffffffffffffffffffffffffff1673ffffffffffffffffffffffffffffffffffffffff168152602001908152602001600020819055505b81600160008282546103a29190610b51565b9250508190555060007f000000000000000000000000000000000000000000000000000000000000000073ffffffffffffffffffffffffffffffffffffffff1663a9059cbb85856040518363ffffffff1660e01b8152600401610406929190610b85565b6020604051808303816000875af1158015610425573d6000803e3d6000fd5b505050506040513d601f19601f820116820180604052508101906104499190610be6565b90508061048b576040517f08c379a000000000000000000000000000000000000000000000000000000000815260040161048290610c5f565b60405180910390fd5b8373ffffffffffffffffffffffffffffffffffffffff167f5afeca38b2064c23a692c4cf353015d80ab3ecc417b4f893f372690c11fbd9a6846040516104d191906108ef565b60405180910390a250505050565b7f000000000000000000000000000000000000000000000000000000000000000081565b60008111610546576040517f08c379a000000000000000000000000000000000000000000000000000000000815260040161053d90610a96565b60405180910390fd5b60007f000000000000000000000000000000000000000000000000000000000000000073ffffffffffffffffffffffffffffffffffffffff166323b872dd3330856040518463ffffffff1660e01b81526004016105a593929190610c7f565b6020604051808303816000875af11580156105c4573d6000803e3d6000fd5b505050506040513d601f19601f820116820180604052508101906105e89190610be6565b90508061062a576040517f08c379a000000000000000000000000000000000000000000000000000000000815260040161062190610c5f565b60405180910390fd5b816000803373ffffffffffffffffffffffffffffffffffffffff1673ffffffffffffffffffffffffffffffffffffffff16815260200190815260200160002060008282546106789190610cb6565b9250508190555081600160008282546106919190610cb6565b925050819055503373ffffffffffffffffffffffffffffffffffffffff167fe1fffcc4923d04b559f4d29a8bfc6cda04eb5b0d3c460751c2402c5c5cc9109c836040516106de91906108ef565b60405180910390a25050565b6000600154905090565b60008060008373ffffffffffffffffffffffffffffffffffffffff1673ffffffffffffffffffffffffffffffffffffffff168152602001908152602001600020549050919050565b7f000000000000000000000000000000000000000000000000000000000000000081565b600080fd5b600073ffffffffffffffffffffffffffffffffffffffff82169050919050565b600061079082610765565b9050919050565b6107a081610785565b81146107ab57600080fd5b50565b6000813590506107bd81610797565b92915050565b6000819050919050565b6107d6816107c3565b81146107e157600080fd5b50565b6000813590506107f3816107cd565b92915050565b600080604083850312156108105761080f610760565b5b600061081e858286016107ae565b925050602061082f858286016107e4565b9150509250929050565b6000819050919050565b600061085e61085961085484610765565b610839565b610765565b9050919050565b600061087082610843565b9050919050565b600061088282610865565b9050919050565b61089281610877565b82525050565b60006020820190506108ad6000830184610889565b92915050565b6000602082840312156108c9576108c8610760565b5b60006108d7848285016107e4565b91505092915050565b6108e9816107c3565b82525050565b600060208201905061090460008301846108e0565b92915050565b6000602082840312156109205761091f610760565b5b600061092e848285016107ae565b91505092915050565b61094081610785565b82525050565b600060208201905061095b6000830184610937565b92915050565b600082825260208201905092915050565b7f506f6b6572506f74457363726f773a206e6f7420686f73740000000000000000600082015250565b60006109a8601883610961565b91506109b382610972565b602082019050919050565b600060208201905081810360008301526109d78161099b565b9050919050565b7f506f6b6572506f74457363726f773a20706c61796572206973207a65726f0000600082015250565b6000610a14601e83610961565b9150610a1f826109de565b602082019050919050565b60006020820190508181036000830152610a4381610a07565b9050919050565b7f506f6b6572506f74457363726f773a20616d6f756e74206973207a65726f0000600082015250565b6000610a80601e83610961565b9150610a8b82610a4a565b602082019050919050565b60006020820190508181036000830152610aaf81610a73565b9050919050565b7f506f6b6572506f74457363726f773a20696e73756666696369656e7420706f74600082015250565b6000610aec602083610961565b9150610af782610ab6565b602082019050919050565b60006020820190508181036000830152610b1b81610adf565b9050919050565b7f4e487b7100000000000000000000000000000000000000000000000000000000600052601160045260246000fd5b6000610b5c826107c3565b9150610b67836107c3565b9250828203905081811115610b7f57610b7e610b22565b5b92915050565b6000604082019050610b9a6000830185610937565b610ba760208301846108e0565b9392505050565b60008115159050919050565b610bc381610bae565b8114610bce57600080fd5b50565b600081519050610be081610bba565b92915050565b600060208284031215610bfc57610bfb610760565b5b6000610c0a84828501610bd1565b91505092915050565b7f506f6b6572506f74457363726f773a207472616e73666572206661696c656400600082015250565b6000610c49601f83610961565b9150610c5482610c13565b602082019050919050565b60006020820190508181036000830152610c7881610c3c565b9050919050565b6000606082019050610c946000830186610937565b610ca16020830185610937565b610cae60408301846108e0565b949350505050565b6000610cc1826107c3565b9150610ccc836107c3565b9250828201905080821115610ce457610ce3610b22565b5b9291505056fea2646970667358221220677fdb7802e7c942a8d55f8df1598d28c7d22eec97868d45a71ba3e0de28b8e264736f6c63430008140033",
  "linkReferences": {},
  "deployedLinkReferences": {}
}